:020000040800F2
:10000000E8610020A10100080D3A00084937000806
:100010004B37000871170008D15500080000000098
:1000200000000000000000000000000079500008FF
:10003000072B000800000000F53A00088150000876
:10004000BB010008BB010008BB010008BB010008A0
:10005000BB010008BB010008BB010008BB01000890
:10006000BB010008BB010008BB010008991F000884
:10007000BB010008BB010008BB010008BB01000870
:10008000BB010008BB010008BB010008BB01000860
:10009000BB010008BB010008BB010008BB01000850
:1000A000BB010008BB010008BB010008BB01000840
:1000B000BB010008BB010008BB010008BB01000830
:1000C000BB010008BB010008BB010008BB01000820
:1000D000BB010008BB010008BB010008BB01000810
:1000E000BB010008BB010008BB010008BB01000800
:1000F000BB010008BB010008BB010008BB010008F0
:10010000000000000000000000000000BB0100082B
:10011000BB010008BB010008BB010008BB010008CF
:10012000BB010008BB010008BB010008BB010008BF
:10013000BB010008BB010008000000000000000037
:10014000BB010008BB010008BB0100080000000063
:10015000000000000000000000000000000000009F
:100160000000000000000000BB010008BB01000807
:10017000BB010008000000000000000000000000BB
:1001800000000000BB010008DFF810D000F024FBE5
:1001900000480047B9680008AFF30080E86100201C
:1001A0000648804706480047FEE7FEE7FEE7FEE711
:1001B000FEE7FEE7FEE7FEE7FEE7FEE7295200085E
:1001C000890100082DE9F05F0546002092469B4614
:1001D00088460646814640241BE02846414647465D
:1001E000224600F0AEF953465A46C01A914110D348
:1001F00011461846224600F095F92D1A67EB0108C2
:100200004F4622460120002100F08CF917EB00092F
:100210004E41201EA4F10104DFDC484631462A4647
:100220004346BDE8F09F40EA01039B0703D009E085
:1002300008C9121F08C0042AFAD203E011F8013BD2
:1002400000F8013B521EF9D27047D2B201E000F82B
:10025000012B491EFBD270470022F6E710B513466A
:100260000A4604461946FFF7F0FF204610BD2DE967
:10027000FE4F81EA030404F0004421F000410094A1
:100280004FF0000B23F0004350EA01045ED052EA25
:1002900003045BD0C3F30A54C1F30A552C44A4F2FF
:1002A000F3340194A0FB0254C1F3130141F4801113
:1002B000C3F3130343F4801301FB024400FB034E1A
:1002C000840A970A44EA815447EA8357A4FB0768E3
:1002D00002958D0A05FB07854FEA932C04FB0C540D
:1002E0002705029D4FEA065847EA1637B5EB080581
:1002F0006EEB070C870E920E47EA811742EA8312D3
:10030000A7FB0201B6EB0B0164EB00042B0D43EAE3
:100310000C335E1844EB1C50DA465146E7FB0201F1
:10032000C5F313044FEA0B3343EA14534FEA043284
:10033000019C43EA0603A4F10C040294009CCDE95D
:1003400000B400F054F903B0BDE8F08F002001467E
:10035000F9E72DE9F04D81EA030404F0004B21F0A8
:10036000004514464FF0000A23F0004150EA050210
:1003700020D054EA01021DD0C5F30A570246C5F346
:100380001303C1F31300C1F30A5640F4801543F47C
:100390008013A7EB0608101BD64608F2FD3873EB56
:1003A000050002D308F1010801E092185B41B8F1A1
:1003B000000F03DA00200146BDE8F08D00204FF465
:1003C0008011064684460EE0171B73EB050705D324
:1003D000121B63EB050306434CEA010C49084FEA84
:1003E000300092185B4150EA0107EDD152EA030058
:1003F00012D082EA040083EA0501084305D0101BED
:10040000AB4106D20122002306E000224FF0004358
:1004100002E06FF0010253101AEB06004CEB08519A
:1004200010EB0A0041EB0B01BDE8F04D00F0D0B835
:10043000F0B4CA17CB0F50405140C61841F1000527
:100440004FEAC372314628004FF0960303D0B6231B
:10045000F0BC00F08FB830460021F9E770B5C1F369
:100460000A5201F000450024C1F3130140F2FF33AA
:1004700041F480119A4201DA002070BD40F233430A
:100480009A42A2F2334203DC524200F05AF800E0F2
:1004900090402C43F1D0404270BD00F0004230F05B
:1004A00000400AD0C10D01F56071C0F3160042EAA8
:1004B0000151C208400711437047002001467047B0
:1004C00001F0004330B421F0004150EA010206D0AF
:1004D0000A0DA2F56072C1F31301002A02DC30BCE0
:1004E00000207047440F44EAC104C100E01830BC4A
:1004F00000EBC25000F035B830B50B460146002085
:100500002022012409E021FA02F59D4205D303FAD5
:1005100002F5491B04FA02F52844151EA2F1010256
:10052000F1DC30BD202A04DB203A00FA02F1002081
:1005300070479140C2F1200320FA03F31943904021
:100540007047202A04DB203A21FA02F0002170478C
:1005500021FA02F3D040C2F120029140084319462B
:1005600070470029A8BF7047401C490008BF20F011
:100570000100704710B4B0FA80FC00FA0CF050EAA9
:10058000010404BF10BC704749B1CCF1200421FA2A
:1005900004F411FA0CF118BF012121430843A3EB25
:1005A0000C01CB1D4FEA00614FEA102042BF002032
:1005B00010BC704700EBC35010440029A4BF10BC0E
:1005C0007047401C490008BF20F0010010BC704774
:1005D00010B5141E73F1000408DA401C41F100014B
:1005E00092185B411A4301D120F0010010BD2DE9A2
:1005F000F04D92469B4611B1B1FA81F202E0B0FA99
:1006000080F220329046FFF78DFF04460F4640EA05
:100610000A0041EA0B0153465A46084313D01146DB
:1006200053EA010019D0C8F140025046FFF789FF94
:1006300005460E46504659464246FFF773FF0843AB
:1006400005D0012004E020463946BDE8F08D0020A9
:10065000054346EAE0762C4337430A986305E40AEB
:10066000A0EB08000022FD0A44EA47540A3002D5F4
:1006700000200146E9E7010510196941DDE9084557
:1006800000196941BDE8F04DA2E72DE9FE4F804613
:1006900081EA0300C00F0C46009021F0004123F0D6
:1006A0000045B8EB0200A94105D2404621469046DC
:1006B0001C460B46024623F00040104347D0270D4E
:1006C000C7F30A00C3F30A510290401A0190402870
:1006D0006BDAC3F3130040F4801B0098924620B1FC
:1006E0000023D2EB030A63EB0B0B01985946C0F1D0
:1006F00040025046FFF716FF06460D465046594643
:10070000019A00F0FFFC10EB08006141002487EA29
:10071000115284EAE7731A4340D0009A62B3019AF7
:10072000012A4FEA075215DC001B61EB02014FF072
:10073000004202EA0752CDE90042001C41F5801157
:1007400032462B46FFF753FF03B0BDE8F08F40461B
:100750002146F9E7001B61EB0201001C41F5801303
:1007600000185B412018A2F5001747EB030140EA8F
:10077000D570B6196D4111E06D084FEA360645EAAD
:10078000C0754FEA0752001B61EB0201001C41F5E6
:10079000801149084FEA30000019514132462B467A
:1007A00003B0BDE8F04FFFF713BF009801224000EF
:1007B0000023D0EB020263EBE073009821464FEA7E
:1007C000E074B8EB000061EB0401E9E783F000435B
:1007D0005BE781F0004158E7064C074D06E0E06812
:1007E00040F0010394E8070098471034AC42F6D378
:1007F000FFF7CEFCC8900008F89000080160704731
:1008000000000000000000000000000000000000E8
:1008100000000000000000000000000000000000D8
:1008200000000000000000000000000000000000C8
:1008300000000000000000000000000000000000B8
:101000002DE9F04D00231A461B1A8A4103DB00200C
:101010000146BDE8F08DC1F30A52C1F3130141F45A
:1010200080154FF0000BD10702D100186D41521E00
:101030000027044640F2FF11384601EB620A3E46A3
:101040008046024600204FF48011FFF77AFAC21959
:101050007141BB1846EB0100B4EB030C75EB000CBF
:1010600004D3E41A65EB000517460E46241908F16F
:1010700001006D4180463428E3DDF91946EB060096
:10108000091BA84103D24FF0FF32134601E00022B2
:1010900013461BEB070046EB0A51BDE8F04DFFF786
:1010A00097BAC1F30A52C1F3130140F2FF3341F47E
:1010B00080119A4202DA00200146704740F2334321
:1010C0009A42A2F2334202DC5242FFF73ABAFFF7E9
:1010D00029BA000030B5041E71F1000404DB4FF0A2
:1010E0000044404264EB0101141E73F1000405DB6F
:1010F0001C464FF00043524263EB0403994208BF81
:10110000904230BD202A06DBCB17203A41FA02F08C
:1011100043EAE07306E041FA02F3D040C2F1200254
:1011200091400843194670470EB5C10F80EAE07040
:101130000844CA07002140F233438DE80E000A46F6
:101140000B46FFF754FA03B000BD0EB540F2334131
:1011500002910021CDE900110A460B46FFF747FA3C
:1011600003B000BD30B58C1810F8012B12F00F033E
:1011700001D110F8013B120906D110F8012B03E050
:1011800010F8015B01F8015B5B1EF9D101E001F889
:10119000013B521EFBD1A142E6D3002030BDC26804
:1011A00022F0F84242EA8161C1607047036A6FF33E
:1011B0001B430362036A43EA01410162016A6FF360
:1011C0000B010162016A114301627047D0F8A0204F
:1011D00001236FF3520203FA01F11143D0F8A0206A
:1011E0001143C0F8A0107047436A23F47F034362A1
:1011F000436A43EA01414162416A21F0FF014162D1
:10120000416A114341627047C26822F0E0721143A3
:10121000C16070470029816814BF41F0010141F0AD
:101220000201816070470000F0B4134A134B144C64
:101230004FF0A04CB0F1A04F16BF9842DCF8085315
:10124000256805EA0202D1E9005645EA0605D1E91A
:10125000026746EA0736097C45EA060545EA0121A8
:1012600041EA0201B0F1A04F16BF9842CCF8081332
:101270002160F0BC70470000E010FCFF000100504E
:1012800008070050F0B501218DB0080702F0DCFC22
:101290004FF4807002F0C8FC0121480702F0D4FC32
:1012A0007F4802F0C1FC01214FF0A04000F0E1F9BD
:1012B0007C4C0121204600F0DCF97B4D01212846C1
:1012C00000F0D7F979487A490068B0FBF1F000EBFB
:1012D00080008000401E03D300BF00BF401EFBD231
:1012E00000214FF0A04000F0B2F94FF0A04000F014
:1012F000B6F900BF4FF0A04000F0FEF80028F9D189
:101300004FF0A04000F000F90021204600F09FF9C6
:10131000204600F0A4F9204600F0EEF80028FAD1AB
:101320002646204600F0F0F800212C46284600F022
:101330008EF9204600F093F9204600F0DDF80028F1
:10134000FAD12546204600F0DFF84FF480300990AE
:1013500040100A9006200890022000240B908DF87F
:10136000304008A94FF0A040FFF75EFF089408A99D
:1013700028460B94FFF758FF4FF450700094CDE9C6
:1013800001404FF48060CDE903048000CDE90504FD
:1013900001278DF81C7069464FF0A04000F0C2F89C
:1013A0006946304600F0BEF803948DF81C7069461B
:1013B000284600F0B7F80223012204214FF0A04094
:1013C00000F0D8F8022301220321304600F0D2F8C1
:1013D000012207231146284600F0CCF801214FF0E6
:1013E000A04000F078F801214FF0A04000F07BF819
:1013F0000121304600F06FF80121304600F073F80B
:1014000004214FF0A040FFF7CAFE802240F67F7112
:101410004FF0A040FFF7CAFE04214FF0A040FFF7B5
:10142000D5FE2822D7215006FFF7DEFE4FF44001FB
:101430004FF0A040FFF7E8FE02214FF0A04000F07F
:1014400042F801214FF0A04000F034F801214FF0A4
:10145000A040FFF7DFFE01213046FFF7DBFE012150
:101460002846FFF7D7FE01214FF0A04000F052F8C8
:101470000028F8D00121304600F04CF80028F9D0BF
:101480000121284600F046F80028F9D04FF0A0408E
:1014900000F0EAF8284600F0E7F80DB0F0BD0000D3
:1014A000002000100001005000040050B400002093
:1014B00000127A000029C16814BF41F0010121F037
:1014C0000101C1607047C26822F00202C260C268B6
:1014D0001143C1607047C268491E22F4602242EA8B
:1014E0004141C16070470029C16814BF41F4803197
:1014F00021F48031C160704701460020896811F0F5
:10150000004F18BF01207047D0F8B4007047006C3E
:1015100080B270470246002012680A4218BF0120BC
:101520007047000010B4C268114B1A40D1E9003C6A
:1015300043EA0C03D1E902C44CEA040C43EA0C036D
:10154000D1F810C043EA0C03D1F814C043EA0C03ED
:10155000D1F818C043EA0C031A43C260026B097F3A
:1015600022F00F02491E1143016310BC70470000B6
:1015700007C0FFFD10B44FF01F0C052A0DD2046BFD
:1015800002EB420252000CFA02FC24EA0C0C01FAB3
:1015900002F24CEA020202632FE00A2A0ED2446BE6
:1015A000521F02EB420252000CFA02FC24EA0C0C1D
:1015B00001FA02F24CEA020242631EE00F2A0ED246
:1015C000846B0A3A02EB420252000CFA02FC24EA53
:1015D0000C0C01FA02F24CEA020282630DE0C46BC9
:1015E0000F3A02EB420252000CFA02FC24EA0C0C05
:1015F00001FA02F24CEA0202C263092911D9826996
:101600000A3901EB41010722D0F818C08A402CEAC0
:1016100002028261826903FA01F11143816110BC07
:10162000704742694A1E02EB42024FF0380C0CFA36
:1016300002F2D0F814C02CEA02024261426901EBC6
:10164000410103FA01F11143416110BC7047826806
:1016500022F0804282608268114381607047816815
:1016600041F0004181607047816841F00401816070
:101670007047826822F0405282600029816814BF5E
:1016800041F0805141F000518160704738B5314DD3
:101690002846FFF73CFF41F270714843040B28468F
:1016A000FFF7E2FF00EE104A2B48B8EEC00AD0ED7B
:1016B000000A2A4820EE800AC269BDEEC00A10EE78
:1016C000101A12B9CA000262C261C2EBC20201EB77
:1016D000D201C161026AC908C2EBC20201EBD201A8
:1016E0000162C279C908521CD2B2C271042A38BF41
:1016F00038BD0025C571A1F6025000EB80001849E5
:10170000400081FB00100111B1EBE07401D502F043
:10171000F3F9642C18DC224612A1144803F07CFF74
:101720000F2C08DA4FF47843104A002180200095EE
:1017300003F0FAFB38BD4FF6FF730C4A00218020FE
:10174000009503F0F1FB38BD642206A1074803F0C1
:1017500063FFF0E700040050C05D0020000000209F
:10176000C1DE31352533752525000000945D00204C
:10177000FEE700002DE9F8433B4D00244FF4806361
:101780006970A8703949009401EB80007021426EA5
:10179000302003F0C9FB00943548697848F2FF73A4
:1017A00050F821207021582003F0BEFB03F012FFF7
:1017B000601CC4B2092CF9D32F4E6978A6F57B774B
:1017C00096F90C009FED2B0A00EB400007EB801010
:1017D00000EB8110A978002400EBC100A6F24C4870
:1017E00080ED080A80ED090A03F0F4FE96F90C007A
:1017F0006A7800EB400007EB801000EB8210A978BC
:1018000008EB421200EBC101D2ED060A91ED080A85
:10181000601CC4B230EE200A062C81ED080A91ED5E
:10182000090AD2ED070A30EE200A81ED090ADBD35E
:1018300096F90C00697800EB400007EB801000EB94
:101840008110A978B1EE080A00EBC100D0ED080ABA
:1018500080EE801A80ED081AD0ED090A80EE801A19
:1018600080ED091ABDE8F883000000200C7C000818
:10187000C87B000800000000C05D00202DE9F8438F
:101880003B4D00244FF48063687000943948A97878
:1018900000EB81007021426E302003F045FB009484
:1018A0003548697848F2FF7350F82120702158209C
:1018B00003F03AFB03F08EFE601CC4B2092CF9D38E
:1018C0002F4E6978A6F57B7796F90C009FED2B0AD1
:1018D00000EB400007EB801000EB8110A97800249A
:1018E00000EBC100A6F24C4880ED000A80ED010A31
:1018F00003F070FE96F90C00697800EB400007EBEE
:10190000801000EB8110AA7808EB411100EBC200B7
:10191000D1ED060A90ED000A30EE200A80ED000AB3
:1019200090ED010AD1ED070A30EE200A80ED010AA0
:10193000601CC4B2062CDBD396F90C00697800EB6E
:10194000400007EB801000EB8110A978B1EE080A87
:1019500000EBC100D0ED000A80EE801A80ED001A85
:10196000D0ED010A80EE801A80ED011ABDE8F883FF
:10197000000000200C7C0008C87B0008000000006C
:10198000C05D00202DE9F8433B4D00244FF48063F7
:101990006970A8703949009401EB80007021426E93
:1019A000302003F0C1FA00943548697848F2FF739B
:1019B00050F821207021582003F0B6FA03F00AFEF7
:1019C000601CC4B2092CF9D32F4E6978A6F57B7739
:1019D00096F90C009FED2B0A00EB400007EB8010FE
:1019E00000EB8110A978002400EBC100A6F24C485E
:1019F00080ED040A80ED050A03F0ECFD96F90C0079
:101A00006A7800EB400007EB801000EB8210A978A9
:101A100008EB421200EBC101D2ED060A91ED040A77
:101A2000601CC4B230EE200A062C81ED040A91ED50
:101A3000050AD2ED070A30EE200A81ED050ADBD354
:101A400096F90C00697800EB400007EB801000EB82
:101A50008110A978B1EE080A00EBC100D0ED040AAC
:101A600080EE801A80ED041AD0ED050A80EE801A0F
:101A700080ED051ABDE8F883000000200C7C00080A
:101A8000C87B000800000000C05D002082B0F64C5A
:101A900083464FF496716069E18120F0180060611F
:101AA000F24890F90C0000EB4001F14800EB811086
:101AB000617900EB8110A17900EBC10090ED050A7E
:101AC000B5EEC00AF1EE10FA08BF4FF0C00B1BF0E4
:101AD000800FDFF8A093E84D4FF002074FF09048D9
:101AE00041F6263A7BD000266670A67003F072FDA0
:101AF00003F070FD002002F063FB0096002140F22D
:101B0000FF730846EA6D03F00FFA009640F2F653B1
:101B10000E210820AA6C03F007FA009640F2F65353
:101B20001C210820AA6D03F0FFF9D44E308810F470
:101B3000807F09D0308810F0800F08BFA8F8287087
:101B4000308810F4807FF5D1308810F4807FFBD08E
:101B5000D9F80000B0FBFAF000EB80004000401E16
:101B600002D300BF401EFCD20020009040F2F6538A
:101B70002A2108206A6D03F0D7F900210846FFF7F3
:101B800001FF01210020FFF7FDFE02210020FFF7E9
:101B9000F9FE02210120FFF7F5FE01210846FFF7BB
:101BA000F1FE00210120FFF7EDFE0020009040F241
:101BB000F6532A210820EA6C03F0B6F900200090C1
:101BC00040F2F65338210820AA6D03F0ADF93088B1
:101BD00010F4807F0BD0308810F0800F00E037E0E9
:101BE00008BFA8F82870308810F4807FF3D13088BF
:101BF00010F4807FFBD0D9F80000B0FBFAF000EBC6
:101C000080004000401E02D300BF401EFCD20020D6
:101C1000009040F2F653462108206A6D03F084F9E3
:101C200000210120FFF7A6FD01210846FFF7A2FDD4
:101C300002210120FFF79EFD02210020FFF79AFDFF
:101C400001210020FFF796FD00210846FFF792FDD5
:101C50001BF0400F00F0EC804FF0000B84F801B057
:101C600084F802B003F0B6FC03F0B4FC002002F0EC
:101C7000A7FACDF800B0002140F2FF7308462A6EA3
:101C800003F052F9CDF800B040F2F6530E210820CF
:101C90002A6D03F049F9754890F90C0000EB4001FA
:101CA000734800EB8110617800EB8110A17800EBA4
:101CB000C100006BFEF7F1FB41EC100B70A153EC7F
:101CC000102B714803F0A8FC40F2F6536E4A1C2119
:101CD0002020CDF800B003F027F9CDF800B040F295
:101CE000F6532A210820AA6D03F01EF9634E3088AE
:101CF00010F4807F09D0308810F0800F08BFA8F85A
:101D00002870308810F4807FF5D1308810F4807FFF
:101D1000FBD0D9F80000B0FBFAF000EB80004000E7
:101D2000401E02D300BF401EFCD2CDF800B040F2EE
:101D3000F6532A2108206A6D03F0F6F80020FFF719
:101D40009DFD0120FFF79AFD0220FFF797FD6770C8
:101D50000120A07003F03EFCCDF800B040F2F65335
:101D6000382108202A6D03F0DFF8404890F90C0074
:101D700000EB40013E4800EB8110617800EB8110E0
:101D8000A17800EBC100006BFEF787FB41EC100B64
:101D90003EA153EC102B3C4803F03EFC40F2F653BE
:101DA000394A46212020CDF800B003F0BDF8CDF827
:101DB00000B040F2F65354210820AA6D03F0B4F8A5
:101DC000308810F4807F09D0308810F0800F08BF71
:101DD000A8F82870308810F4807FF5D1308810F48E
:101DE000807FFBD0D9F80000B0FBFAF000EB800058
:101DF0004000401E02D300BF401EFCD2CDF800B010
:101E000040F2F653542108206A6D03F08DF8002645
:101E100003F0E0FB701CC6B2092EF9D30220FFF7D5
:101E20002DFD0120FFF72AFD0020FFF727FD00BF51
:101E30004FF6FF700090002362212420D5F8842003
:101E400003F072F8D9F800006421B0FBFAF04843BF
:101E5000401E02D300BF401EFCD2606940F010005B
:101E6000606101F049FE000000000020C05D00201C
:101E7000D4590020B40000200C7C00081004004855
:101E8000252E346620830000945D0020252E3166C7
:101E900020830000012303FA01F1002A026814BF25
:101EA000114322EA010101607047000010B5184C8F
:101EB00084B0204600F03CF80121480701F0DCFE28
:101EC00000200221CDE902010090019001466A46FE
:101ED000204600F04AF8012200212046FFF7DAFFF1
:101EE0000C4947F6FF700860142000906A461021E4
:101EF000204600F03AF801221021204600F00CF8AC
:101F0000012210212046FFF7C5FF04B010BD0000DC
:101F1000007400400C7400404FF4805303FA01F148
:101F2000002A026814BF114322EA010101607047D0
:101F3000A0F1804110B5B1F5E8414FF0010109D0A1
:101F4000880601F0A5FEBDE8104000214FF080603A
:101F500001F09EBE4FF0005001F09AFEBDE8104027
:101F600000214FF0005001F093BE10B4036840F61A
:101F7000FE7C0CFA01FC23EA0C03D2E900C44CEA13
:101F8000040CD2E9024222434CEA020202FA01F1B5
:101F90001943016010BC70472DE9F04FFF482DED4B
:101FA000028B91B00068FE4D10F0040FFD4C4FF015
:101FB00080014FF0A0407CD0FFF7ACFA9B260128AF
:101FC00007D04FF480714FF0A040FFF7A3FA40B163
:101FD00011E0B4F90A0001280DDD401E6081268160
:101FE00009E0B4F90A00B0F5807F04DA617831B114
:101FF000401C6081268120899B2822D002E0218913
:102000009B2915D0B4F908009B2809DD0020C4E9FC
:102010000C00C4E90E00C4E90800C4E90A002081EC
:10202000E1484FF400714180E048A061E04889E058
:10203000103000B26081B0F5807FC4BF4FF4807073
:102040006081DC484FF0904190F800C0042084F893
:1020500002C0BCF1000F0CBF88610885D648DFF8CC
:102060006083D64900780CEB4C03607003EB080EDC
:102070000A881EF8003012FB03F2B4F90A3047F662
:10208000FF7A02FB03F6F71706EB17560AEB263624
:102090002E80B1F902700CEB4C0C2A4640F2FF1670
:1020A0000CEB080C31F8048F1CF8009017FB03F7B9
:1020B00000E034E009FB07F74FEAE77907EB19572F
:1020C0000AEB27375780B1F902701CF8009018FB13
:1020D00003F809FB08F84FEAE87908EB19580AEB0E
:1020E000283822F8048F761EDCD1B4491EF800206F
:1020F000B1F8FE1711FB02F15943CA1701EB125157
:102100000AEB2131A5F8FE17AE4900234FF41B322C
:1021100031F810101846FEF755F8606180E7FEF7B9
:102120006DFB607808B9208928B94FF480714FF0B1
:10213000A040FEF763FB9C484FF480614180A248B9
:10214000A061A248E06195480121416096480027BE
:1021500007809448B0F9080010909B2880F2008313
:10216000B7F5007F80F241838E49D1E90E43D1E972
:102170000CCE0E698869CDE90B34D1E90843CDE96D
:102180000934D1E90A4307934B69C969844D4FEA81
:10219000965835F8182021F8022B30F8027B30F8D9
:1021A000022B30F8029B4F4430F8029B4A4430F82F
:1021B000029B4F4430F8029B4A4430F8029B4F4444
:1021C00030F8029B4A4430F8029BB94430F8027B55
:1021D00007EB020A794A32F91870039707FB09F7EF
:1021E000BCEB070CCDF838C002EB480C6EEBE77E79
:1021F000BCF9008208FB09FCDDE90B971CEB070723
:1022000049EBEC7BCDE90BB7039F07FB0AFCDDE94B
:1022100009971CEB07070A9708FB0AF749EBEC7CC8
:10222000DDF81CA0B4EB07096AEBE77706EB0308BF
:10223000CDE907794FEA985635F8164021F8024B58
:1022400030F8027B32F916A030F8024B30F8029BCE
:102250004F4430F8029B4C4430F8029B4F4430F816
:10226000029B4C4430F8029B4F4430F8029B4C4494
:1022700030F8029B4F4430F8029B0AFB07FBA14455
:102280000E9CCDF80CA0B4EB0B046EEBEB7E02EBD6
:102290004606B6F900A2CDF808A00AFB07FADDE968
:1022A0000B7B4FEAEA761AEB0B0ACDF830A0DDF88B
:1022B0000CA07E410AFB09FA0A9F4FEAEA7B1AEB5F
:1022C000070A4BEB0C0BCDE909BADDF808A00AFBB5
:1022D00009FCDDE90779B9EB0C0A67EBEC7908EB4F
:1022E0000307CDE9079A4FEA975835F818C021F847
:1022F00002CB30F8029B32F918B030F802CB02EB77
:10230000480830F802ABD14430F802ABD44430F87E
:1023100002ABD14430F802ABD44430F802ABD14424
:1023200030F802ABD44430F802ABCA4430F8029B18
:10233000CDF80CB0E1440BFB0AFCB8F900824FEA7F
:10234000EC7BCDF80880B4EB0C0C08FB0AF86EEBC4
:102350000B04DDF830A04FEAE87B18EB0A084BEBE2
:10236000060EDDF80CB0CDF830800BFB09F6DDE988
:1023700009BA4FEAE67816EB0A0648EB0B0BCDE9F3
:1023800009B6DDF8088008FB09F8DDE9079A4FEA8D
:10239000E876BAEB080869EB060A19E0000002408B
:1023A000000A00107000002000120010CC00002075
:1023B000CC5000200200002001000020000000108E
:1023C000C87C0008C07B0008CC280020CC5400202A
:1023D0001F44CDE907A8BE0D35F8168021F8028B01
:1023E00030F8029B30F8028B30F802ABD14430F861
:1023F00002ABD04430F802ABD14430F802ABD04449
:1024000030F802ABD14430F802ABD04430F802AB24
:10241000D14430F802ABC24432F91680CDF80C80BA
:1024200008FB09F8BCEB080C64EBE8740D9402EBB4
:102430004604B4F900420294DDF8308004FB09F44C
:1024400014EB08064EEBE47BCDF82CB0DDF80C80E5
:10245000DDE909B408FB0AF818EB040E4BEBE87B46
:10246000CDE909BE029C04FB0AF4DDE9078ABAEB58
:10247000040B68EBE47907EB0308CDE9079B4FEA0F
:10248000985735F8174021F8024B30F8029B32F983
:1024900017B030F8024B30F802ABD14430F802AB41
:1024A000544430F802ABD14430F802AB544430F815
:1024B00002ABD14430F802AB544430F802ABCA440A
:1024C00030F8029BCDF80CB0A144DDF834E00BFBF2
:1024D0000AF402EB4702BCEB040CB2F900220292B0
:1024E00002FB0AF26EEBE4744FEAE277DDF82CB0FF
:1024F000921947EB0B07DDF80CB00C920BFB09F2BD
:10250000DDE909BED61712EB0E0246EB0B06CDE94C
:102510000962029A02FB09F2DDE9079BD617BBEBC1
:10252000020269EB0606CDE9076208EB03064FEAF3
:10253000965835F8182021F8022B30F8025B30F855
:10254000022B30F8029B4D4430F8029B4A4430F88D
:10255000029B4D4430F8029B4A4430F8029B4D44A4
:1025600030F8029B4A4430F8029B4D4430F8029BFD
:102570009144CB4A32F918A0CDF80CA00AFB05FB18
:10258000BCEB0B0C64EBEB7E02EB4804DDF8308017
:10259000B4F900B20BFB05F414EB08080AFB09F5CB
:1025A000CDF8308047EBE474DDE9097A4FEAE5784D
:1025B00015EB0A0548EB07080BFB09F7CDF824805B
:1025C000DDE9079ABAEB070A69EBE778CDE9078AF4
:1025D00006EB0307DFF8CC824FEA975638F81680EF
:1025E00021F8028B30F8029B30F8028B30F802ABF6
:1025F000D14430F802ABD04430F802ABD14430F8CB
:1026000002ABD04430F802ABD14430F802ABD04436
:1026100030F802ABD14430F802ABC24432F9168034
:10262000CDF80C8008FB09F8BCEB080CCDF838C0DD
:1026300002EB460C6EEBE87EBCF900B2DDF83080B0
:102640000BFB09FC1CEB0806DDF80C8044EBEC7975
:1026500008FB0AFC0C961CEB0506DDF824800A96A4
:1026600048EBEC740BFB0AFCDDE9078ABAEB0C06BD
:1026700068EBEC7ACDE907A607EB0305DFF824C287
:102680004FEA95563CF816C021F802CB30F8027B91
:1026900032F916A030F802CB02EB460230F8028B7A
:1026A000474430F8028BC44430F8028B474430F87A
:1026B000028BC44430F8028B474430F8028BC44488
:1026C00030F8028B474430F8028B0AFB07FBE044EA
:1026D000DDF838C0CDF80CA0BCEB0B0C6EEBEB7E3C
:1026E000B2F900B20BFB07F20C9E961949EBE272AD
:1026F000CDE90B26DDF80CA00A9E0AFB08F24FEA92
:10270000E279921949EB0404CDE90942DDE9076A4F
:102710000BFB08F4E217BAEB040466EB0202079223
:10272000614AEE18158808352DB21580B5F5007F81
:10273000FFF62CAD13465D4A5F609061C3F80880D8
:10274000C2E90CCEDDE90B30C2E90E03DDE9093048
:10275000C2E9080307981661D161C2E90A4044E062
:10276000DFF84491B7F5007F3FDAC7F50073002B1F
:102770003BDD4E4E002013F0010FD6F81C80A8F16F
:10278000020109D0D6E9042C0CFB0020800D35F89D
:10279000100021F8020F01205A1018BFD6E9044C8E
:1027A00015D000BF0CFB004A4FEA9A5A35F81AA020
:1027B000A1F802A000F1010A0CFB0A4A4FEA9A5A5A
:1027C000801C35F81AA021F804AF521EEAD1D6E9D0
:1027D000041040F2FF120144D21B02FB00103061D2
:1027E00008EB4300F061A9F800302F484088B0F5AD
:1027F000806F1EBF11B0BDEC028BBDE8F08F2B4D7A
:102800001098401C00B228819B2844D1D5E90E01C4
:1028100082468B46FDF70CFED5E90C8100EE100ACE
:102820008946404660EE008AFDF702FE00EE100A7F
:102830009FED1F8A1F4840EE008A28EE880A80ED2F
:10284000000AD5E90A0106460F46FDF7F1FD00EE44
:10285000100AD5E9080160EE008A04460D46FDF72E
:10286000E7FD00EE100A1448144A40EE008A28EEF4
:10287000880A80ED000AC2E900AB1148114AC0E99C
:102880000089C2E90067104A1048C2E900450168A2
:1028900041F00201016011B0BDEC028BBDE8F08F88
:1028A00000000010000A001000120010700000204C
:1028B000A01D971C280000202C00002050000020A4
:1028C0005800002060000020680000201400002054
:1028D0000029016812BF41F001014FF6FE7211405C
:1028E00001607047F0B501218BB0084601F0ACF9EA
:1028F0000121022001F0A8F9234F384600F050F8DA
:102900002248009022480024CDE901044FF4A05051
:10291000ADF80C008025A8000494CDE90550800096
:102920002026CDE907064000CDE90904694638466E
:1029300000F0C0F801220621384600F0B3F801216A
:102940003846FFF7C5FF134F384600F029F8124804
:102950000090124801901020810102900001ADF812
:102960000C10CDE9060108964001CDE90445CDE9FA
:1029700009046946384600F09DF801213846FFF702
:10298000A7FF0BB0F0BD0000080002400C03005090
:10299000CC0000204404024018740040CC500020B9
:1029A00001684FF6FE721140016000210160416034
:1029B0008160C1602E4A2F49904204BF486840F0B0
:1029C0000F0022D02C4A904204BF486840F0F0002B
:1029D0001BD02A4A904204BF486840F4706014D06B
:1029E000274A904204BF486840F470400DD0254A01
:1029F000904204BF486840F4702006D0224A9042BA
:102A000004BF486840F4700001D1486070471F4A15
:102A1000904204D1486840F07060486070471C4A9A
:102A2000111F904204BF086840F00F0014D0194AEB
:102A3000904204BF086840F0F0000DD0164A904262
:102A400004BF086840F4706006D0144A904204BF86
:102A5000086840F4704001D108607047104A904205
:102A600018BF7047086840F4702008607047000085
:102A700008000240000002401C00024030000240FA
:102A800044000240580002406C00024080000240B6
:102A9000080402401C040240300402404404024086
:102AA00058040240002A026814BF114322EA0101BF
:102AB0000160704710B40268D1F820C08B686FF3D2
:102AC0000E1243EA0C03D1E904C44CEA040C43EAB5
:102AD0000C03D1F818C043EA0C03D1F81CC043EA38
:102AE0000C03D1F824C043EA0C03D1F828C043EA10
:102AF0000C031A4302608A8942600A68826049684E
:102B0000C16010BC70477047F0B432482221B7EE64
:102B1000000A01721E2141720121C17202218172DB
:102B20002D4980ED000A80ED010A0025DFED2B1A0A
:102B3000DFED2B0A9FED2B1ADFED2B2A9FED2B3AB1
:102B4000DFED2B3A9FED2B4ADFED2B4A9FED2B5A01
:102B5000DFED2B5AB0EE082AA0F57B774D638D632D
:102B60004E6B06EB460007EB801CCD638C6B0CEBC9
:102B70008412CB6B02EBC300C0ED041AC0ED050A52
:102B800080ED000AC0ED010A80ED081AC0ED090AC7
:102B9000581CC8630228ECD382ED0C2A601CC2EDDD
:102BA0000E2A88630328E0D38CED0D3ACCED1D3A54
:102BB0008CED2D4ACCED0F4A8CED1F5A701CCCEDDC
:102BC0002F5A48630528CAD3486940F0100048616D
:102BD000F0BC7047C05D002000000020286B6E4EE6
:102BE000000000005F70893000007A44FF4ACA3359
:102BF00017B7D136425D243A26C6C5B8C53B80BD5D
:102C00006DA820BF064941F626320968B1FBF2F1F2
:102C10004843401E38BF704700BF401EFCD270477B
:102C2000B400002010EE103ADFF8ECC17B492E22F0
:102C300001F14800634509DD02702D224270827067
:102C4000C270027142710C20C872704730B410EE2D
:102C5000103A734D734C4FF0000CDFED730A9D4238
:102C6000D6BF10EE103A9FED710A9C4206DD9FED33
:102C7000701A81F80BC020EE010A0BE010EE103A3A
:102C8000DFF8B0C19C4535DD9FED6B1A0123CB7297
:102C900020EE010A694C6A4B10EE10CA6949B2EE87
:102CA000041AA44537DB20EE010AFCEEC00A10EE40
:102CB00090CAA3FB0CC35B09A1FB034C4FEADC0CDD
:102CC000CCF1000C0CEB8C0C03EB4C033033437059
:102CD00010EE903AA1FB03C3DB08A1FB034C4FEAC3
:102CE000DC0CCCF1000C0CEB8C0C03EB4C03303304
:102CF00083703BE010EE103ADFF84CC19C45C3BF37
:102D00009FED521A20EE010A022320EE200AD8BFBE
:102D10000323CB72BEE710EE10CA4D4CA44527DB4F
:102D2000DFED4C0A20EE200AFCEEC00A10EE90CA3D
:102D3000A3FB0CC35B09A1FB034C4FEADC0CCCF1F9
:102D4000000C0CEB8C0C03EB4C03303343708270A3
:102D500010EE902AA1FB0232D208A1FB02C3DB08CD
:102D60005B4203EB830302EB43023032C27022E08A
:102D700020EE200A4270FCEEC00A10EE902AA3FB5F
:102D800002325209A1FB02C3DB085B4203EB83035F
:102D900002EB43023032827010EE902AA1FB023225
:102DA000D208A1FB02C3DB085B4203EB830302EB07
:102DB00043023032C270FCEEC00A4FF47A7320EE48
:102DC000010A10EE902AB2FBF3F2A1FB02C3DB086A
:102DD0005B4203EB830302EB43023032027010EEDE
:102DE000902ABCEEC00AA1FB02C3DB085B4203EBE6
:102DF000830302EB43023032027110EE102AA1FB72
:102E00000231C908494201EB810102EB4101303135
:102E1000417130BC7047000058FF7F3F0000002028
:102E20007D1D90265F70893000007A44000000000C
:102E3000A5D46853BD378635286B6E4E0000C84256
:102E40001F85EB51CDCCCCCC6F12833A0024744952
:102E5000000020410000C84210EE103ADFF8D8C14F
:102E600076492E2201F14800634509DD02702D22CA
:102E700042708270C270027142710C20C872704739
:102E800010B410EE103A6E4CDFF8B8C1DFED6E0AE8
:102E90009C42D6BF10EE103A9FED6C0A9C4505DDB2
:102EA0009FED6B1A042320EE010A0AE010EE103A9F
:102EB000DFF8A0C19C4535DD9FED671A052320EEA4
:102EC000010ACB72654C10EE10CA654B6549B2EE33
:102ED000041AA44530DB20EE010AFCEEC00A10EE15
:102EE00090CAA3FB0CC35B09A1FB034C4FEADC0CAB
:102EF000CCF1000C0CEB8C0C03EB4C033033437027
:102F000010EE903AA1FB03C3DB08A1FB034C4FEA90
:102F1000DC0CCCF1000C0CEB8C0C03EB4C033033D1
:102F2000837034E010EE103AB3F17E5FBABF20EE4A
:102F3000200A06230723C4E710EE10CA4A4CA44512
:102F400027DBDFED4A0A20EE200AFCEEC00A10EE75
:102F500090CAA3FB0CC35B09A1FB034C4FEADC0C3A
:102F6000CCF1000C0CEB8C0C03EB4C0330334370B6
:102F7000827010EE902AA1FB0232D208A1FB02C39C
:102F8000DB085B4203EB830302EB43023032C27087
:102F900022E020EE200A4270FCEEC00A10EE902AD9
:102FA000A3FB02325209A1FB02C3DB085B4203EB25
:102FB000830302EB43023032827010EE902AA1FBB1
:102FC0000232D208A1FB02C3DB085B4203EB83039E
:102FD00002EB43023032C270FCEEC00A4FF47A7347
:102FE00020EE010A10EE902AB2FBF3F2A1FB02C31D
:102FF000DB085B4203EB830302EB430230320270D7
:1030000010EE902ABCEEC00AA1FB02C3DB085B42B3
:1030100003EB830302EB43023032027110EE102AFD
:10302000A1FB0231C908494201EB810102EB4101D8
:103030003031417110BC70475CFF794400000020C2
:10304000CCBC8C2BBD37863500007A4400000000D4
:10305000286B6E4E6F12833A002474490000C842F8
:103060001F85EB51CDCCCCCC000020410000C842E4
:1030700010EE103ADFF8DCC1774910B42E2201F1CE
:1030800048009C450ADA02702D2242708270C2709C
:10309000027142710D20C87210BC704710EE103AD8
:1030A000DFF8B8C1DFED6E0A6345ABBF10EE103A32
:1030B0009FED6C0AB3F17E5F20EE200AB8BF0823B3
:1030C00016DB10EE103ADFF8A0C16345B8BF092344
:1030D0000EDB10EE103ADFF894C16345B4BF9FEDEC
:1030E000641A9FED641A20EE010AB4BF0A230B2371
:1030F000CB7210EE10CA604C604B6149B2EE041AFC
:10310000A44526DB20EE010AFCEEC00A10EE90CAB0
:10311000A3FB0CC35B09A1FB034C4FEADC0CCCF115
:10312000000C0CEB8C0C03EB4C033033437010EEB3
:10313000903AA1FB03C3DB08A1FB034C4FEADC0C74
:10314000CCF1000C0CEB8C0C03EB4C033033837094
:103150002AE010EE10CA4B4CA44527DBDFED4A0AEB
:1031600020EE200AFCEEC00A10EE90CAA3FB0CC3AE
:103170005B09A1FB034C4FEADC0CCCF1000C0CEB1F
:103180008C0C03EB4C0330334370827010EE902AAA
:10319000A1FB0232D208A1FB02C3DB085B4203EBB6
:1031A000830302EB43023032C27022E020EE200A99
:1031B0004270FCEEC00A10EE902AA3FB02325209C4
:1031C000A1FB02C3DB085B4203EB830302EB430278
:1031D0003032827010EE902AA1FB0232D208A1FB9D
:1031E00002C3DB085B4203EB830302EB4302303292
:1031F000C270FCEEC00A4FF47A7320EE010A10EEA2
:10320000902AB2FBF3F2A1FB02C3DB085B4203EBA3
:10321000830302EB43023032027010EE902ABCEEC0
:10322000C00AA1FB02C3DB085B4203EB830302EB92
:1032300043023032027110EE102AA1FB0231C9089C
:10324000494201EB810102EB41013031417110BC77
:10325000704700008C6A6E4E00000020BD37863536
:1032600000007A440000000000007A440024744901
:103270006F12833ABD3786350000C8421F85EB5177
:10328000CDCCCCCC000020410000C8420149C86030
:10329000704700000020024030B505464FF4302052
:1032A00000F05AF8042818BF30BD094C206940F0DE
:1032B000020020616561206940F0400020614FF408
:1032C000302000F049F8216921F00201216130BD70
:1032D000002002400248016941F08001016170470D
:1032E0000020024078B50646002000900D464FF4BD
:1032F000302000F031F8042818BF78BD0C4C20694C
:1033000040F00100206135804FF4302000F024F8B7
:10331000042808D1B01C00900099280C08804FF4B4
:10332000302000F019F8216921F00101216178BDF8
:10333000002002400548016911F0800F08BF704766
:10334000034941600349416070470000002002408A
:1033500023016745AB89EFCD174902460420CB68AE
:1033600013F0010F25D1CB6813F0100F18BF022006
:103370001AD1C96811F0040F18BF032014E0CB68FC
:10338000042013F0010F18BF01200AD1CB6813F0FD
:10339000100F18BF022004D1CB6813F0040F18BF20
:1033A0000320521E012804D0002A18BF70470520B0
:1033B0007047002AE3D1FAE7002002403D483C492B
:1033C00090F9082001EB8203521C83ED000A53B2EE
:1033D00000220372032BA8BF0272D1ED000A91ED07
:1033E000011AF4EEC10AF1EE10FA91ED020A0ADDBB
:1033F000B4EEC01AF1EE10FA0ADCF4EEC00AF1EEF7
:1034000010FA0FD30CE0B4EEC01AF1EE10FA02D2AB
:10341000F0EE410A06E0B4EEE00AF1EE10FA01DD4A
:10342000F0EE400A9FED240AF5EEC00AF1EE10FA24
:1034300008BF704790ED091A81EE200A1F4BB5EEC8
:10344000C00AF1EE10FA0ED310EE101AB1F17E5F41
:1034500005DDF7EE001A81EE801AB0EE410A10EE9B
:10346000101A994201DCC0ED090A90ED090A1149D0
:1034700030EE600A91F90910B5EEC00AF1EE10FACB
:1034800034BF491C491E417249B2491D0B2924BF52
:10349000C0ED090A427290ED090A094970EEC00AAE
:1034A00091ED011A00EE810A80ED090A70470000D3
:1034B000B45D002000000020000000006666663F4A
:1034C000C05D0020F0B5012183B0480400F0BCFBD2
:1034D0000121880400F0B8FB4FF0904000F05AF84A
:1034E0002B4F384600F056F805220321384600F0ED
:1034F0001AF905221146384600F015F902258DF813
:10350000045028208DF80550002400908DF80640C6
:103510008DF807406946384600F0BCF878200090E6
:1035200003208DF804008DF8074069464FF0904065
:1035300000F0B0F869463846009500F0ABF8012677
:103540008DF8046048F206008DF8064000908DF872
:1035500007408DF8055069464FF0904000F09AF80A
:103560004FF4016000906946384600F093F88DF8FA
:1035700004404FF460708DF8064000908DF80760AD
:103580008DF805506946384600F084F803B0F0BD68
:103590000004004810B5B0F1904F39D0A0F190412F
:1035A000B1F5806129D0A0F19041B1F500613AD028
:1035B000A0F19041B1F5406140D0A0F19041B1F54A
:1035C000805146D0A0F19041B1F5A0514CD0A0F16E
:1035D0009041B1F5C05152D0A0F19041B1F5E05108
:1035E00018BF10BD0121080400F03AFBBDE81040EF
:1035F00000214FF4803000F033BB0121880400F03B
:103600002FFBBDE8104000214FF4802000F028BBC4
:103610000121480400F024FBBDE8104000214FF4D4
:10362000003000F01DBB0121C80400F019FBBDE80B
:10363000104000214FF4002000F012BB01210805CA
:1036400000F00EFBBDE8104000214FF4801000F0A8
:1036500007BB0121480500F003FBBDE81040002135
:103660004FF4001000F0FCBA0121880500F0F8FAD0
:10367000BDE8104000214FF4800000F0F1BA0121B4
:10368000C80500F0EDFABDE8104000214FF400003D
:1036900000F0E6BAF0B4002201254FF0030C00BFA1
:1036A0000C6805FA02F31C409C4236D10C79012CBF
:1036B00018BF022C19D186684FEA42040CFA04F7AD
:1036C00026EA070686604E7906FA04F4866844EA1C
:1036D00006048460848824EA0303838084888B79C9
:1036E00003FA02F344EA0303838004684FEA4203C7
:1036F0000CFA03F624EA060404600C79076804FA5D
:1037000003F444EA07040460C46824EA0604CE799A
:1037100006FA03F343EA0403C36002F10102102A2C
:10372000BED3F0BC70474B07DB0E9A40C90800EBD4
:103730008100016A4FF00F0C0CFA03F39943016208
:10374000016A114301627047FEE7FEE72DE9F84385
:103750009D4C9E4D0026A4F57B77002874D0224610
:103760002B7992F90C20012102EB4202A4F57B7C1B
:103770000CEB8212062B66D2DFE803F0030B2C67FA
:10378000758E002802DD8020FEF780F9C020FEF74C
:103790007DF98D49002891ED010ACCBFF0EE000AB9
:1037A000F6EE000A20EE200A10EE100A84ED010A5F
:1037B000B0F1705FBCBF9FED860A84ED010A42DB69
:1037C00010EE100AB0F17E5FC8BFB7EE000A84EDBC
:1037D000010A7BE04FF48060DFF8F881009000235D
:1037E00038210820D8F80C2001F09EFB7A4841F6D9
:1037F00026310068B0FBF1F0B4214843401E02D3EB
:1038000000BF401EFCD2DFF8D4914846FDF77FFE92
:1038100041F27071484300EE100AB8EE400ADFED45
:10382000700A484680EE801A84ED001AFDF71CFFEE
:10383000009640F2F65338210820D8F80C2001F009
:1038400073FBFDF723FF41E046E0617A081848BFAB
:10385000667203D45A28C8BF5A206072686940F063
:103860004000686132E000EE100AF8EEC00A9FEDF9
:103870005D1A80EE810AD2ED0C0A30EE200A82ED4C
:103880000C0AA96302EB811092ED0C0A491C80ED31
:103890000C0A0329F6D318E000EE100AB2EE041A5F
:1038A000F8EEC00A80EE810AD2ED0E0A30EE200A50
:1038B00082ED0E0AC5F8381002EB811092ED0E0A67
:1038C000491C80ED0E0A0329F6D3A9632879A87252
:1038D000686940F010006861A87A012818BFFF28C5
:1038E00012D16068FCF7D9FD41EC100B3EA153ECFE
:1038F000102B3F4801F090FE48F2FF733C4A2A210A
:103900006020009601F010FBA87A032818BFFF285A
:103910001AD1607A80B100EB80004FEA400235A1F5
:10392000334801F079FE48F2FF73314A46216020A6
:10393000009601F0F9FA07E048F2FF732EA2462143
:103940006020009601F0F0FAA87A042818BFFF283A
:1039500018D194F90C0000EB400007EB8010006BCD
:10396000FCF79BFD41EC100B24A153EC102B2048DD
:1039700001F052FE48F2FF731D4A54214820009680
:1039800001F0D2FAA87A052818BFFF2818D194F9B7
:103990000C0000EB400007EB8010806BFCF77DFD16
:1039A00041EC100B17A153EC102B114801F034FE21
:1039B00048F2FF730E4A62214820009601F0B4FAE3
:1039C000AE72BDE8F8830000C05D0020000000205A
:1039D0000000003C0C7C0008B400002000040050F3
:1039E0000070804B00401C4625342E3366000000DA
:1039F000945D0020253375002D2D2D00252E346675
:103A000000000000252E3166000000007047000015
:103A100038B54FF4A06000F063F80B208DF800007B
:103A200001208DF8010000248DF802408DF803007C
:103A3000684600F01BF80B484FF47A710068B0FB41
:103A4000F1F0411EB1F1807F28BF38BD4FF0E0207A
:103A50004161054AF02182F8141D8461072101614A
:103A600038BD0000B40000200FE000E010B4C278C0
:103A700001784FF00F0C012322B3184A126801F1AC
:103A8000E02102F4E062C2F5E062120AC2F104042D
:103A90002CFA02F290F801C00CFA04FC847822405F
:103AA00042EA0C02120181F80024007800F01F01A4
:103AB00003FA01F14009800000F1E020C0F8001194
:103AC00010BC704701F01F0003FA00F0490989009B
:103AD00001F1E021C1F8800110BC70470CED00E05D
:103AE000034940F0FD7040F08060086070470000BE
:103AF0000CED00E07047000072B6204C207D10F005
:103B0000100F33D0FFF716FC3420FFF7BFFB4FF048
:103B10000820FFF7C1FB4FF00820A063184860643D
:103B20001848E063606C50F8041B6064A06BFFF7FA
:103B3000D9FBA06B001DA063E16B8842F2D3124851
:103B40006064A16B01F57070E06388420CD9606C11
:103B500050F8041B6064A06BFFF7C4FBA06B001D52
:103B6000A063E16B8842F2D3FFF7B4FB002000F0C2
:103B700027FB4FF0904102200885FEE7000000205F
:103B8000C05D002010080008D459002070B5244DF5
:103B9000686910F0020F08BF70BD20F00200686174
:103BA0006C786C71A878A871D5E91801FCF740FC15
:103BB0001C4901EB4414A060D5E91A01FCF738FC5C
:103BC000E060D5E91401FCF733FC2061D5E916016A
:103BD000FCF72EFC6061D4E90401C4E9060194ED10
:103BE000021A94ED062A94ED030A61EE010A22EE10
:103BF000013AD4ED072A40EE000A02EE803A22EEA6
:103C0000811A02EE401AC3EE201A81EE200AC4ED9A
:103C1000061A84ED070A686940F00400686170BD07
:103C200000000020745900200649020FCA6A14BF20
:103C300022F4785222F4F872CA62CA6A1043C86247
:103C40007047000000100240044A0029516914BF67
:103C5000084321EA00005061704700000010024054
:103C6000044A0029916A14BF084321EA00009062C7
:103C70007047000000100240044A0029D16914BFB7
:103C8000084321EA0000D0617047000000100240A4
:103C9000044A0029116914BF084321EA0000106199
:103CA0007047000000100240044A0029916914BFC7
:103CB000084321EA000090617047000000100240B4
:103CC000044A0029D16814BF084321EA0000D060EB
:103CD00070470000001002400029018814BF41F025
:103CE000400121F0400101807047000010B5012122
:103CF00086B00803FFF7D8FF144C204600F028F8E0
:103D0000684600F0B6F84FF44040ADF800004FF4BC
:103D10008270ADF802004FF4E060ADF804000021BD
:103D2000ADF808106015ADF80A000820ADF80C00D9
:103D3000ADF80610ADF80E106946204600F04AF8BE
:103D400001212046FFF7C8FF06B010BD003001403A
:103D500010B5A0F18041B1F598311AD0A0F18041A1
:103D6000B1F5605120D0A0F18041B1F5705126D05D
:103D7000A0F18041B1F59E3118BF10BD0121C803EB
:103D8000FFF79EFFBDE8104000214FF40040FFF711
:103D900097BF01210803FFF793FFBDE81040002102
:103DA0004FF48050FFF78CBF01218803FFF770FFAD
:103DB000BDE8104000214FF48040FFF769BF0121AA
:103DC000C803FFF765FFBDE8104000214FF4004035
:103DD000FFF75EBF10B44A88B2F5827F28D0828890
:103DE0008B8822F470621A4382800288CB88B1F8F3
:103DF00008C08C8943EA0C03B1F80AC002F44152AE
:103E00004CEA040CCC894CEA040C43EA0C03B1F8EC
:103E100000C04C884CEA040C43EA0C031A430280AD
:103E2000828B22F400628283098A018210BC70476F
:103E30000288CB88B1F808C08C8943EA0C03B1F83A
:103E40000AC002F441524CEA040CCC894CEA040C3E
:103E500043EA0C03B1F800C04CF4827C43EA0C0343
:103E60001A43028082888B8822F470621A4382800F
:103E7000D6E70021018041804FF4E0628280C1805A
:103E8000018141818181C181072101827047000048
:103E900090B583B000AF0446084611461A46234643
:103EA000FB800346BB800B467B8013463B803B88f0
:103EB0007A88B988F8880CF0BDF8012318460C37C9
:103EC000BD4690BD00BF00BF00BF00BF00BF00BF28
:103ED00016F0800F18BFB5F10105F7D1B64F1025C8
:103EE0003D80BCF8086016F0020F08BF264607D1D7
:103EF00001E0761E04D0BCF8089019F0020FF8D04B
:103F00008CF80C80BCF8086016F0020F08BF26463B
:103F100007D101E0761E04D0BCF8088018F0020F2B
:103F2000F8D0BCF8086016F0800F18BF264607D0FE
:103F3000BCF8088018F0800F18BFB6F10106F7D161
:103F40009E4E3560BCF808804FEA102918F0020F29
:103F500008BFA04608D102E0B8F1010804D0BCF8BF
:103F600008A01AF0020FF7D08CF80C9000F0FF08B0
:103F7000BCF8080010F0020F08BF204607D101E08E
:103F8000401E04D0BCF8089019F0020FF8D08CF84D
:103F90000C80BCF808004FEA122810F0020F08BF8E
:103FA000204607D101E0401E04D0BCF8089019F06B
:103FB000020FF8D08CF80C80BCF80800D2B210F0D8
:103FC000020F08BF204607D101E0401E04D0BCF814
:103FD000088018F0020FF8D08CF80C20BCF808000C
:103FE0002B2210F0020F08BF204607D101E0401E2F
:103FF00004D0BCF8088018F0020FF8D0BCF8080014
:1040000010F0800F18BF204608D000BFBCF8088011
:1040100018F0800F18BFB0F10100F7D13D80BCF857
:10402000080010F0020F08BF204607D101E0401E33
:1040300004D0BCF8088018F0020FF8D08CF80C20DF
:10404000BCF8080010F0020F08BF204607D101E0BD
:10405000401E04D0BCF8082012F0020FF8D0BCF8C3
:10406000080010F0800F18BF204607D0BCF80820C9
:1040700012F0800F18BFB0F10100F7D13560BCF825
:1040800008000A0A10F0020F08BF204607D101E01D
:10409000401E04D0BCF8088018F0020FF8D08CF84D
:1040A0000C20BCF80800CAB210F0020F08BF20466E
:1040B00007D101E0401E04D0BCF8081011F0020F37
:1040C000F8D08CF80C20BCF808001A0A10F0020F87
:1040D00008BF204607D101E0401E04D0BCF80810FC
:1040E00011F0020FF8D08CF80C20BCF80800DAB2FE
:1040F00010F0020F08BF204607D101E0401E04D097
:10410000BCF8081011F0020FF8D08CF80C20BCF8A5
:1041100008102C2011F0020F08BF214607D101E042
:10412000491E04D0BCF8082012F0020FF8D0BCF8E9
:10413000081011F0800F18BF214607D0BCF80820E6
:1041400012F0800F18BFB1F10101F7D13D80BCF82A
:10415000081011F0020F08BF214607D101E0491EE7
:1041600004D0BCF8082012F0020FF8D08CF80C0034
:10417000BCF8080010F0020F08BF204607D101E08C
:10418000401E04D0BCF8081011F0020FF8D0BCF8A3
:10419000080010F0800F07D0BCF8080010F0800F66
:1041A00018BFB4F10104F7D13560BDE8F0077047DE
:1041B000003001405FAE0A0028040048180400489F
:1041C00070B51D4E050AC4B270880021401E83B22E
:1041D0003088401E82B20846FFF75AFE3288718846
:1041E000002302FB01F00028D8BF70BD134E144815
:1041F00002FB01FC018911F0020F08BF314606D114
:1042000001E0491E03D0028912F0020FF9D00573B4
:10421000018911F0020F08BF314606D101E0491EA5
:1042200003D0028912F0020FF9D00473591C8BB22B
:104230009C45DFDC70BD0000B00000205FAE0A00CE
:1042400000300140F0B51D0ADCB213460E460A46A6
:1042500007461946FFF71CFE0023B6EB070C5ABFB2
:10426000114E1248F0BD018911F0020F08BF31460E
:1042700006D101E0491E03D0028912F0020FF9D0E5
:104280000573018911F0020F08BF314606D101E024
:10429000491E03D0028912F0020FF9D00473591C91
:1042A0008BB26345DFDDF0BD5FAE0A000030014038
:1042B0002DE9F0414FF090454FF400442C8501204A
:1042C000FEF7A0FCAC610120FEF79CFCFB4C112228
:1042D0002089FB4D10F0020F08BF294606D101E0EE
:1042E000491E03D0208910F0020FF9D0208910F068
:1042F000800F18BF294606D0208910F0800F18BF04
:10430000B1F10101F8D1EF4F10263E80208910F065
:10431000020F08BF284606D101E0401E03D02189C4
:1043200011F0020FF9D02273208910F0020F08BF9C
:10433000284606D101E0401E03D0218911F0020F6A
:10434000F9D0208910F0800F18BF284606D02189A7
:1043500011F0800F18BFB0F10100F8D1DFF86883C9
:10436000C8F800606E20FEF74DFC2089B12110F0E6
:10437000020F08BF284606D101E0401E03D0228963
:1043800012F0020FF9D0208910F0800F18BF2846D4
:1043900006D0228912F0800F18BFB0F10100F8D1C9
:1043A0003E80208910F0020F08BF284606D101E0A8
:1043B000401E03D0228912F0020FF9D02173208908
:1043C00010F0020F08BF284606D101E0401E03D0BE
:1043D000218911F0020FF9D0208910F0800F18BF49
:1043E000294606D0208910F0800F18BFB1F10101D5
:1043F000F8D1C8F800602089052210F0020F08BF2C
:10440000284606D101E0401E03D0218911F0020F99
:10441000F9D0227320893C2110F0020F08BF2846F2
:1044200006D101E0401E03D0228912F0020FF9D01C
:10443000217320893C2110F0020F08BF284606D1C5
:1044400001E0401E03D0228912F0020FF9D021733F
:104450002089B22110F0020F08BF284606D101E0E2
:10446000401E03D0228912F0020FF9D0208910F0EB
:10447000800F18BF284606D0228912F0800F18BF7F
:10448000B0F10100F8D13E80208910F0020F08BF82
:10449000284606D101E0401E03D0228912F0020F07
:1044A000F9D02173208910F0020F08BF284606D1E9
:1044B00001E0401E03D0218911F0020FF9D02089BC
:1044C00010F0800F18BF284606D0218911F0800F08
:1044D00018BFB0F10100F8D1C8F8006021890520AB
:1044E00011F0020F08BF294606D101E0491E03D092
:1044F000228912F0020FF9D0207320893C2110F09C
:10450000020F08BF284606D101E0401E03D02289D1
:1045100012F0020FF9D0217320893C2210F0020F13
:1045200008BF284606D101E0401E03D0218911F0C2
:10453000020FF9D022732089B32110F0020F08BFB7
:10454000284606D101E0401E03D0228912F0020F56
:10455000F9D0208910F0800F18BF284606D0228994
:1045600012F0800F18BFB0F10100F8D13E80208911
:1045700010F0020F08BF284606D101E0401E03D00C
:10458000228912F0020FF9D02173208910F0020F56
:1045900008BF284606D101E0401E03D0218911F052
:1045A000020FF9D0208910F0800F18BF284606D0DE
:1045B000218911F0800F18BFB0F10100F8D1C8F8BF
:1045C00000602089052110F0020F08BF284606D19F
:1045D00001E0401E03D0228912F0020FF9D02173AE
:1045E00020893C2210F0020F08BF284606D101E0C6
:1045F000401E03D0218911F0020FF9D022732089C7
:104600003C2210F0020F08BF284606D101E0401EF0
:1046100003D0218911F0020FF9D0227320890521DE
:1046200010F0020F08BF284606D101E0401E03D05B
:10463000228912F0020FF9D0217320893C2210F058
:10464000020F08BF284606D101E0401E03D0218991
:1046500011F0020FF9D0227320893C2210F0020FD2
:1046600008BF284606D101E0401E03D0218911F081
:10467000020FF9D022732089B42110F0020F08BF75
:10468000284606D101E0401E03D0228912F0020F15
:10469000F9D0208910F0800F18BF284606D0228953
:1046A00012F0800F18BFB0F10100F8D13E802089D0
:1046B00010F0020F08BF28460ED109E0003001407B
:1046C0005FAE0A002804004818040048401E03D0CA
:1046D000228912F0020FF9D02173208910F0020F05
:1046E00008BF284606D101E0401E03D0218911F001
:1046F000020FF9D0208910F0800F18BF284606D08D
:10470000218911F0800F18BFB0F10100F8D1C8F86D
:1047100000602089032210F0020F08BF284606D14E
:1047200001E0401E03D0218911F0020FF9D022735D
:1047300020893A2110F0020F08BF284606D101E077
:10474000401E03D0228912F0020FF9D0208910F008
:10475000800F18BF284606D0228912F0800F18BF9C
:10476000B0F10100F8D13E80208910F0020F08BF9F
:10477000284606D101E0401E03D0228912F0020F24
:10478000F9D02173208910F0020F08BF284606D106
:1047900001E0401E03D0218911F0020FF9D02089D9
:1047A00010F0800F18BF294606D0208910F0800F26
:1047B00018BFB1F10101F8D1C8F8006020890521C6
:1047C00010F0020F08BF284606D101E0401E03D0BA
:1047D000228912F0020FF9D021732089202110F0D4
:1047E000020F08BF284606D101E0401E03D02289EF
:1047F00012F0020FF9D0208910F0800F18BF284660
:1048000006D0228912F0800F18BFB0F10100F8D154
:104810003E80208910F0020F08BF284606D101E033
:10482000401E03D0228912F0020FF9D02173208993
:1048300010F0020F08BF284606D101E0401E03D049
:10484000218911F0020FF9D0208910F0800F18BFD4
:10485000284606D0218911F0800F18BFB0F1010061
:10486000F8D1C8F800602089132110F0020F08BFAA
:10487000284606D101E0401E03D0228912F0020F23
:10488000F9D0208910F0800F18BF284606D0228961
:1048900012F0800F18BFB0F10100F8D13E802089DE
:1048A00010F0020F08BF284606D101E0401E03D0D9
:1048B000228912F0020FF9D02173208910F0020F23
:1048C00008BF294606D101E0491E03D0208910F017
:1048D000020FF9D0208910F0800F18BF284606D0AB
:1048E000218911F0800F18BFB0F10100F8D1C8F88C
:1048F00000602089262110F0020F08BF284606D14B
:1049000001E0401E03D0228912F0020FF9D0208965
:1049100010F0800F18BF284606D0228912F0800FB1
:1049200018BFB0F10100F8D13E80208910F0020FCD
:1049300008BF284606D101E0401E03D0228912F0AC
:10494000020FF9D02173208910F0020F08BF28460A
:1049500006D101E0401E03D0218911F0020FF9D0E9
:10496000208910F0800F18BF284606D0218911F049
:10497000800F18BFB0F10100F8D1C8F8006020899D
:10498000012110F0020F08BF284606D101E0401EA9
:1049900003D0228912F0020FF9D021732089292235
:1049A00010F0020F08BF294606D101E0491E03D0CE
:1049B000208910F0020FF9D0208910F0800F18BF65
:1049C000294606D0208910F0800F18BFB1F10101EF
:1049D000F8D13E80208910F0020F08BF294606D189
:1049E00001E0491E03D0208910F0020FF9D0227394
:1049F000208910F0020F08BF284606D101E0401EB2
:104A000003D0218911F0020FF9D0208910F0800F16
:104A100006D0208910F0800F18BFB5F10105F8D13C
:104A2000C8F80060BDE8F041002000F001B80000C7
:104A30004E4930B40A89362512F0020F4C4A08BF9D
:104A4000134607D101E05B1E04D0B1F808C01CF08A
:104A5000020FF8D00B8913F0800F18BF134607D050
:104A6000B1F808C01CF0800F18BFB3F10103F7D1F3
:104A7000404B4FF0100CA3F800C00B8913F0020F4D
:104A800008BF134606D101E05B1E03D00C8914F069
:104A9000020FF9D00D730B8913F0020F08BF1346F4
:104AA00006D101E05B1E03D00C8914F0020FF9D08F
:104AB0000B8913F0800F18BF134606D00C8914F031
:104AC000800F18BFB3F10103F8D12B4BC3F800C01E
:104AD000A023DFF8A8C0802401280DD002281CD014
:104AE000ACF800400328ACF8023027D00889002336
:104AF00010F0020F33D036E0ACF80030ACF80240D2
:104B00000889A02310F0020F2DD101E0521E2AD0F7
:104B1000088910F0020F26D1F8E7ACF80030ACF8A5
:104B200002400889602310F0020F1CD101E0521EE0
:104B300019D0088910F0020F15D1F8E70B89C020B1
:104B400013F0020F06D101E0521E03D00B8913F0BF
:104B5000020FF9D0087330BC7047521E03D0088989
:104B600010F0020FF9D00B7330BC704700300140D9
:104B70005FAE0A002804004818040048B000002076
:104B80002DE9F04F8BB0814614988846050AC4B2CF
:104B90001F0AA2F130005049DEB209280BD8C0B27A
:104BA00000EB400202EB001001EB400126226846B8
:104BB000FBF739FB25E02E2A18BF2C2A11D0A2F1D1
:104BC0000100042812D80B30C0B200EB400202EB07
:104BD000001001EB400126224FEA0D00FBF723FBFA
:104BE0000FE02622684601F5BE71F7E7002000902D
:104BF0000190029003900490059006900790089011
:104C0000099008F1120083B209F10F0082B2414607
:104C10004846FFF73DF9DFF8C490DFF8C4804FF055
:104C2000000AEE4600231EF80AB000BF2BFA03F07C
:104C300010F0010FB8F8080000F002001FD00028A3
:104C400008BF494602D006E0491E04D0B8F8080063
:104C500010F0020FF8D088F80C70B8F8080010F0C7
:104C6000020F08BF4A4607D101E0521E04D0B8F82F
:104C7000080010F0020FF8D088F80C601EE0002841
:104C800008BF494607D101E0491E04D0B8F8080022
:104C900010F0020FF8D088F80C50B8F8080010F0A7
:104CA000020F08BF484607D101E0401E04D0B8F803
:104CB00008C01CF0020FF8D088F80C40581C83B2D2
:104CC000082BB3D30AF101001FFA80FABAF1260FBC
:104CD000A8D30BB0BDE8F08F2F8500085FAE0A00A7
:104CE000003001402DE9F04FA5B081462E9888464E
:104CF000050AC4B21F0AA2F130014448DEB20A29F3
:104D000009D8C9B201EBC10100EB0111902268463C
:104D1000FBF789FA08E02E2A18BF2C2A26D04FF07C
:104D200090016846FBF798FA08F12F0083B209F169
:104D3000170082B241464846FFF7AAF8DFF8D09044
:104D4000DFF8D0804FF0000AEE4600231EF80AB0CC
:104D50002BFA03F010F0010FB8F8080000F0020081
:104D600026D0002808BF494609D00DE000F5B461FF
:104D700090226846FBF757FAD6E7491E04D0B8F8E8
:104D8000080010F0020FF8D088F80C70B8F808008E
:104D900010F0020F08BF4A4607D101E0521E04D0AE
:104DA000B8F8080010F0020FF8D088F80C601EE088
:104DB000002808BF494607D101E0491E04D0B8F8D1
:104DC000080010F0020FF8D088F80C50B8F808006E
:104DD00010F0020F08BF484607D101E0401E04D082
:104DE000B8F808C01CF0020FF8D088F80C40581C26
:104DF00083B2082BACD30AF101001FFA80FABAF192
:104E0000900FA2D325B0BDE8F08F00008F87000877
:104E10005FAE0A00003001402DE9F04784B01F0A60
:104E2000DDF830C0DEB2A2F120034FEA1C250CF001
:104E3000FF04642B98BFDAB204D9C02A26BF5B3ABC
:104E4000D2B20E2202EB820303EBC202334B1A44AE
:104E5000136800935368019393680293127B8DF853
:104E60000C2001F10C0293B2C21D92B2FFF710F8B0
:104E7000DFF8AC902B4B4FF0000CEA4600201AF8FC
:104E80000C8000BF28FA00F111F0010F198901F020
:104E900002011AD0002908BF494602D005E0491E88
:104EA00003D01A8912F0020FF9D01F73198911F07B
:104EB000020F08BF494606D101E0491E03D01A89F6
:104EC00012F0020FF9D0314619E0002908BF494617
:104ED00006D101E0491E03D01A8912F0020FF9D061
:104EE0001D73198911F0020F08BF494606D101E070
:104EF000491E03D01A8912F0020FF9D02146197306
:104F0000401C80B20828BDD30CF101001FFA80FCC0
:104F1000BCF10D0FB2D304B0BDE8F087CE7C000821
:104F20005FAE0A00003001402DE9FF4F107887B0D6
:104F30009246002804BF0BB0BDE8F08F0A98DFF856
:104F40002891000A02901498484C000A0190089891
:104F50000DF10C0B0C300090149B1AF8012BDDF8AE
:104F600028C0DDE90701DFB2DDE90156A2F1200327
:104F70000CF0FF08642B98BFDAB204D9C02A26BF10
:104F80005B3AD2B20E2202EB820303EBC203384A31
:104F90001A44136803935368049393680593127B30
:104FA0008DF81820C21D009BFEF772FF0023002021
:104FB0001BF803C02CFA00F111F0010F218901F058
:104FC00002011AD0002908BF494602D005E0491E57
:104FD00003D0228912F0020FF9D02673218911F033
:104FE000020F08BF494606D101E0491E03D02289BD
:104FF00012F0020FF9D0414619E0002908BF4946D6
:1050000006D101E0491E03D0228912F0020FF9D027
:105010002573218911F0020F08BF494606D101E02E
:10502000491E03D0228912F0020FF9D039462173AC
:10503000401C80B20828BDD3581C83B20D2BB6D3B8
:105040000C490798098808398842A4BF0BB0BDE80D
:10505000F08F0830C0B207909AF8000000287FF463
:105060007BAF0BB0BDE8F08F5FAE0A0000300140AF
:10507000CE7C0008B0000020704700F09BB8000014
:10508000474830B40188002211F0800F08BF012288
:10509000018811F4007F08BF42F00202008810F47A
:1050A000807F08BF42F004023E48DFF8FCC03F4961
:1050B0000478858800238AB3B5F5167F0CD205F1F4
:1050C0000101818044EA02010170DCF8001041F026
:1050D0004001CCF800103AE039D140F259228280E8
:1050E0000B60082C18D2DFE804F0170406080B0D3B
:1050F000101402220BE0102209E04FF4806206E057
:10510000802204E04FF4805201E04FF480420A60B4
:1051100002E04FF480320A60037018E0FFE7AA1F34
:1051200040F25225AA4210D20B60082C0DD2DFE8C3
:1051300004F00C0407092C2E313401220A6004E02B
:10514000082201E04FF400720A6003708380C18876
:10515000491C89B2C180FA2906D9C380DCF8001045
:1051600041F00101CCF80010C168491CC160B1F5E3
:105170007A7F9CBF30BC70470D49C3600888002807
:105180001CBF401E088030BC70474022DCE74FF453
:105190000062D9E74FF40052D6E74FF40042D3E75C
:1051A00010040048700000201400002018000020A7
:1051B0000E000020174910B44868174A10F00C037D
:1051C000164818BF042B19D0082B17D14B68D1F8FB
:1051D00004C003F470134FF002041CF4803F04EB8E
:1051E000934304BF0E4A5A4308D0D1F82CC00CF0A8
:1051F0000F0C0CF1010CB2FBFCF25A43026049683F
:10520000084AC1F30311515C026822FA01F10160FE
:1052100010BC70470010024000127A00B400002059
:1052200000093D00B8000020374882B0016841F411
:10523000700101603548016841F001010160416879
:10524000334A11404160016821F4102121F080713E
:105250000160016821F480210160416821F4FE01B0
:105260004160C16A21F00F01C162016B294A1140FE
:1052700001630022826001920092016841F4803152
:105280000160016801F4003100910199491C01910C
:10529000009919B90199B1F5A04FF2D1016811F443
:1052A000003F08BF00922ED001211B4A009112211D
:1052B00011604168416041684160416841F480612A
:1052C0004160416821F47C114160416841F404115E
:1052D0004160016841F080710160016811F0007F58
:1052E000FBD0416821F003014160416841F00201B7
:1052F0004160416801F00C010829FAD1080607490C
:10530000086002B07047FEE788ED00E00010024040
:105310000CC07FF8CCFC00FF0020024008ED00E04C
:105320000029018814BF41F0010121F00101018031
:105330007047000070B584B001211020FEF79CFC7E
:105340001D4D284600F03CF800241320ADF808401D
:10535000ADF802400190ADF80040ADF80A40694652
:10536000284600F0E1F82021284600F0D4F8012179
:105370002020FEF781FC114E304600F021F863201A
:10538000ADF80840ADF802400190ADF80040ADF82E
:105390000A406946304600F0C7F82021304600F048
:1053A000BAF801212846FFF7BBFF01213046FFF77D
:1053B000B7FF04B070BD00000010004000140040B2
:1053C00010B5A0F18041B1F596313BD0B0F1804FDE
:1053D0004DD0A0F18041B1F580613ED0A0F1804177
:1053E000B1F500614DD0A0F18041B1F5805152D0AE
:1053F000A0F18041B1F5A05157D0A0F18041B1F5A5
:105400009A315CD0A0F18041B1F5A03162D0A0F119
:105410008041B1F5A23168D0A0F18041B1F5A4314D
:105420006ED0A0F18041B1F5A83118BF10BD0121A7
:105430000805FEF745FCBDE8104000214FF4801040
:10544000FEF73EBC0121C802FEF73AFCBDE8104061
:1054500000214FF40060FEF733BC01210220FEF76B
:1054600017FC0021BDE810400220FEF711BC01210D
:105470000846FEF70DFC0021BDE810400120FEF7B4
:1054800007BC01210420FEF703FC0021BDE8104009
:105490000420FEF7FDBB01211020FEF7F9FB0021DF
:1054A000BDE810401020FEF7F3BB01212020FEF7DD
:1054B000EFFB0021BDE810402020FEF7E9BB0121F1
:1054C0004803FEF7FDFBBDE8104000214FF40050FB
:1054D000FEF7F6BB01210804FEF7F2FBBDE8104021
:1054E00000214FF48030FEF7EBBB01214804FEF7AA
:1054F000E7FBBDE8104000214FF40030FEF7E0BBB1
:1055000001218804FEF7DCFBBDE8104000214FF4C8
:105510008020FEF7D5BB42684FF68F731A40426079
:10552000426811434160704730B40288254BDFF870
:1055300098C0264C984218BF60450ED0B0F1804FFD
:105540001CBFA0F18045B5F5806506D0A0F180456F
:10555000B5F5006518BFA04204D14D8822F0700255
:1055600045EA0202A0F18045B5F580551CBFA0F1C7
:105570008045B5F5A05503D00D8922F440722A4329
:1055800002804A68C2620A880285984218BF604554
:1055900010D0A0F18042B2F5A0321CBFA0F1804231
:1055A000B2F5A23206D0A0F18042B2F5A43218BF03
:1055B000A04201D1498901864FF00101416130BC0F
:1055C00070470000002C01400034014000500140B1
:1055D000FEE700002DE9F0410D4C606920F0060067
:1055E00010F0040F606118BFBDE8F081094F02257B
:1055F0004FF09046388810F0800F08BF3585FEF7D1
:10560000C5FA207D10F0040FF4D0BDE8F081000051
:1056100000000020100400480FB4084B10B504A986
:1056200002AA039800F0B4FD044602A9002001F08C
:1056300032F9204610BC5DF814FB000097680008A2
:1056400003B401984100009850EAC12018BF04201B
:105650004A0D18BF40F0010040F2FF72B2EB515FFB
:1056600008BF40F00200012808BF052002B07047C3
:1056700010B52F499FED2C1B2DED020B84B0059822
:1056800020F000408842DCBF00209DED040B32DD9D
:105690002849884209D1049840B94FF0010000F030
:1056A000AFFC00F07DFC06B010BD05DB9DED040BEA
:1056B00000F06AFC06B010BD68469DED040B00F0DA
:1056C0007BF810F0030011D0012818D09DED021BCB
:1056D0009DED000B02281AD000F08AFA51EC100B55
:1056E00081F0004106B041EC100B10BD9DED021B96
:1056F0009DED000B012000F0AFFB06B010BD9DED4D
:10570000021B9DED000B00F073FA06B010BD0120E6
:1057100000F0A2FB51EC100B81F0004106B041EC0F
:10572000100B10BD00000000000000000000000091
:10573000FB21E93F0000F07F00B52DED048BB0EEBA
:10574000409AF0EE609A83B051EC190BFBF758FCCD
:1057500041EC180B18EE100A18EE901A8DED008B24
:10576000002818BF0120084320F00040C0F17F60EE
:1057700000F1E040C00F14D019EE101A19EE900A93
:105780008DED009B002918BF0121084320F0004047
:10579000C0F17F6000F1E040C00F04BF012000F0C5
:1057A0002FFCB0EE480A03B0F0EE680ABDEC048BA3
:1057B00000BD0000000000002DE9F14F04462DED72
:1057C000020B2DED088B8AB09FEDE70B80ED020BED
:1057D000139EE74826F0004585420ADC9DED120B3A
:1057E000002084ED000B0AB0BDEC088B03B0BDE8CF
:1057F000F08FE0489FEDE0AB9FEDE1BBA84247DDB5
:10580000E14F9FEDE39B9FEDE48B9DED120B53EC7D
:105810001A2B51EC100B002E1CDDFAF7D7FF41ECD0
:10582000100BBD4208D053EC1B2B51EC100BFAF7B8
:10583000CDFFC4E900010BE053EC192B51EC100B28
:10584000FAF7C4FF53EC182BFAF7C0FFC4E90001C4
:105850000120C8E7FAF719FF41EC100BBD4208D050
:1058600053EC1B2B51EC100BFAF70FFFC4E90001AE
:105870000BE053EC192B51EC100BFAF706FF53EC2D
:10588000182BFAF702FFC4E900014FF0FF30AAE736
:10589000C348A84279DB9DED120B51EC100B00F0D0
:1058A000FFFF41EC180B9FEDC00B53EC102BFAF7E8
:1058B000DEFC9FEDBF1B53EC112BFAF7E6FEFAF767
:1058C000CDFD0746FBF730FC41EC190B53EC1A2BCE
:1058D000FAF7CDFC53EC182BFAF77BFF41EC180BD1
:1058E00053EC1B2B51EC190BFAF7C1FCDFF8C8A2E3
:1058F00041EC100B4FEA15580125FA4453EC102BDC
:1059000051EC180BFAF762FF032DC4E900013DD0FA
:10591000C1F30A5005EB4511A8EB00001139814293
:1059200034DA0AEB051BB0EE48AA9BED000BF0EE53
:1059300068AA53EC102B51EC190BFAF798FC41ECC8
:105940001B0B51EC1A0B53EC1B2BFAF73FFF41ECEE
:10595000180B51EC1A0B53EC182BFAF737FF53ECDA
:105960001B2BFAF733FF9BED020B41EC1A0B53ECA8
:10597000102B51EC190BFAF77AFC53EC1A2BFAF7AF
:1059800025FF41EC100B6D1CB8E70EE0002EA8BF00
:105990003846BFF628AF94ED000B51EC100B81F0A8
:1059A0000041C4E9000178421DE7C6F3130040F44A
:1059B000801EC6F30A50A0F2F530471100F01F0513
:1059C000C5F12000DDF848B008900020069007904F
:1059D0000520EC467949002D07EB0002794408BF09
:1059E00051F8221009D051F8223001EB8201AB406E
:1059F0004A68089922FA01F11943A1FB0E26A1FB7E
:105A00000B131A449A4234BF0123002303EB060808
:105A10000CEB8003D3E901A60E448E4234BF012172
:105A2000002192448A4411B1924502D903E0924583
:105A300001D2012100E00021C3E901A641444CF854
:105A40002010011EA0F10100C4DC029800F10050FA
:105A5000850F0298DDE903678000DDF81480FBF70D
:105A600063FB41EC1A0B3046FBF76FFB9FED541BB9
:105A700053EC112BFAF7FBFB41EC1B0B3846FBF701
:105A800064FB9FED511B53EC112BFAF7F0FB41EC3B
:105A9000180B4046FBF759FB9FED4D1B53EC112BA8
:105AA000FAF7E5FB41EC190B51EC180B53EC192BF1
:105AB000FAF7EBFD53EC1B2BFAF7E7FD53EC1A2B2F
:105AC000FAF7E3FDCDE90801002008909DED080BF1
:105AD00053EC1A2B51EC100BFAF778FE53EC1B2BFE
:105AE000FAF774FE53EC182BFAF770FE53EC192BEF
:105AF000FAF76FFE9FED381B53EC112BFAF7B7FB4B
:105B00009FED370B41EC180B53EC102B9DED080B60
:105B100051EC100BFAF7ABFB53EC182BFAF7B5FD71
:105B20009FED310B41EC180B53EC102B9DED080B46
:105B300051EC100BFAF79BFB53EC182BFAF7A5FD71
:105B400041EC100B139810F0004F06D06D4251EC51
:105B5000100B81F0004141EC100B284684ED000B46
:105B600041E600000000000000000000000000000E
:105B7000FB21E93F7CD9024000004054FB21F93F62
:105B80003163621A61B4D03DFB21F93F000000008F
:105B90000000601A61B4D03D7370032E8A19A33BD4
:105BA000FB2139410000000083C8C96D305FE43F2C
:105BB000000000000000E03FF2340000403400002C
:105BC000000000000000103E000000000000103C3B
:105BD000000000000000103A182D4454FB21F93D4C
:105BE0003326A611460B113C00000054FB21F93D61
:105BF00010B52DED040B2DED088B82B0B0EE419A5F
:105C0000F0EE619A0B9820F000449FED4BABB4F19D
:105C1000795F11DA9DED0A0B51EC100BFAF71EFCBF
:105C2000002801BFB0EE4A0AF0EE6A0A02B0BDECED
:105C3000088B04BF04B010BD9DED0A0B53EC102B74
:105C400051EC100BFAF713FB41EC180B3C48062102
:105C5000B0EE480AF0EE680A784400F081F853ECA0
:105C6000182B51EC100BFAF702FB9DED0A0B41ECDF
:105C70001B0B53EC192B51EC100BFAF7F8FA41EC13
:105C8000190B53EC1B2B51EC180BFAF7F0FA53ECF1
:105C9000192BFAF79BFD9FED2C0B41EC190B53ECE4
:105CA000102B51EC180BFAF7E2FA41EC100B2848D4
:105CB000844210DA53EC192B51EC100BFAF786FDE5
:105CC00053EC1A2BFAF785FD41EC100B02B0BDEC3A
:105CD000088B04B010BD1F48A042BCBF9FED1E1B27
:105CE0008DED001B06DBA4F5001001900020009054
:105CF0009DED001B51EC100B53EC112BFAF766FDD8
:105D00009DED000B41EC180B53EC102B51EC1A0BD2
:105D1000FAF75CFD41EC1A0B53EC192B51EC180B04
:105D2000FAF754FD53EC1A2BFAF753FD41EC100B24
:105D3000CCE7000000000000000000000000F03F81
:105D40006431000000000000000000000000E03F9F
:105D50003333D33F0000E93F000000000000D23F92
:105D600070B504462DED028B4D1E00EBC500B0EE64
:105D7000408AF0EE608A90ED000B35F0060017D0F7
:105D800053EC182B51EC100BFAF771FA41EC100B95
:105D90006D1E04EBC50090ED001B51EC100B53EC95
:105DA000112BFAF772FC41EC100B35F00600E7D12D
:105DB000022D36D0042D1CD0062D1CBFBDEC028B4D
:105DC00070BD53EC182B51EC100BFAF750FA94ED10
:105DD0000A1B53EC112BFAF758FC53EC182BFAF76B
:105DE00046FA94ED081B53EC112BFAF74EFC41ECEC
:105DF000100B53EC182B51EC100BFAF738FA94ED0A
:105E0000061B53EC112BFAF740FC53EC182BFAF756
:105E10002EFA94ED040B53EC102BFAF736FC41EC00
:105E2000100B53EC182B51EC100BFAF720FA94EDF1
:105E3000021B53EC112BFAF728FC53EC182BFAF742
:105E400016FA94ED001B53EC112BFAF71EFCBDEC77
:105E5000028B41EC100B70BD31B504462DED040BE7
:105E60002DED0A8BB0EE41BAF0EE61BA0B989DEDC4
:105E70000A0B20F00040B0F1795F0DDA51EC100B05
:105E8000FFF7DEFB042808BF00F09AF89DED0A0B2F
:105E9000BDEC0A8B05B030BD53EC102B51EC100B50
:105EA000FAF7E5F941EC180B9DED0A0B53EC182BB2
:105EB00051EC100BFAF7DBF941EC190B2C48B0EE62
:105EC000480AF0EE680A05217844FFF749FF9FED84
:105ED0002ACBB0EE40AAF0EE60AA9CB353EC1C2B88
:105EE00051EC190BFAF7C3F941EC1C0B53EC1A2BCC
:105EF00051EC190BFAF7BBF99FED210B41EC190B93
:105F000053EC102B51EC1B0BFAF7B1F953EC192B96
:105F1000FAF75CFC53EC182BFAF7A9F953EC1B2B9E
:105F2000FAF754FC53EC1C2BFAF750FC9DED0A1BBE
:105F300053EC112BFAF74DFCBDEC0A8B05B041EC8C
:105F4000100B30BDFFE753EC1A2B51EC180BFAF78E
:105F50008EF953EC1C2BFAF798FB53EC192BFAF73C
:105F600086F99DED0A1B53EC112BFAF78EFBE3E744
:105F7000EC2F000000000000495555555555C5BF90
:105F8000000000000000E03F10B553EC102B51EC76
:105F9000100BFAF77AFB41EC100B10BD000000006B
:105FA0009FED050B10B553EC102B51EC100BFAF7CD
:105FB000D0F941EC100B10BD000000000000000003
:105FC0009FED050B10B553EC102B51EC100BFAF7AD
:105FD0004EF941EC100B10BD000000000000001055
:105FE00002E008C8121F08C1002AFAD170477047A2
:105FF000002001E001C1121F002AFBD17047000000
:106000000149086070470000C80000202DE9FF5FCB
:1060100082B00021DDE90430020DDDF840B0034319
:1060200018D044F61050A2F2FF32424315141198D2
:1060300001281FD0A5EB0B00401C5FEA000A4FF0BF
:1060400000064E4FDFF83891B046504615D5CAF1DC
:10605000000413E0119801244AA3012801D16FEA3A
:106060000B010298119AC0E90031C0E9024206B062
:10607000BDE8F09FCBF10000DFE704460021404A75
:10608000491842EB0450CDE9001012E0E00707D0B8
:1060900032463B4640464946FAF7E9F8804689468B
:1060A00032463B4610461946FAF7E1F806460F46D7
:1060B0006410002CEAD1DDE90401DDE90023BAF126
:1060C000000F06DAFAF7D3F842464B46FAF7CFF854
:1060D00005E0FAF73EF942464B46FAF73AF904462C
:1060E0000E460022284BFAF7F5FF03D84FF0FF3099
:1060F000014607E00022254B20463146FAF7C5FA53
:10610000FAF7CFFF102409E0002C0ADB0A22002353
:10611000FAF758F8039B30321A55641E50EA010210
:10612000F2D1641C039AC4F111031444119A012A98
:1061300003D0012208430DD10AE0084304D0002017
:106140004FF0110B119072E7A3EB0B056D1E0DE0E4
:106150005B4504DD4FF0000205F1010504E003DAC0
:106160004FF00002A5F10105002AECD00298119928
:10617000C0E90231C0E9004579E7000000001440A1
:106180000000F03F300000000000F0430000E03F5E
:106190002DE9FF4F95B09A46884606460025EEE168
:1061A000252877D100242746F94A0121039400E0ED
:1061B000044316F8013F203B01FA03F01042F7D1E7
:1061C00030782A2811D06FF02F033078A0F13002F8
:1061D000092A16D8039A44F0020402EB820203EB68
:1061E00042021044761C0390EFE758F8042B039208
:1061F000002A03DA504244F40054039044F00204AD
:10620000761C30782E2816D116F8010F44F00404BD
:106210002A280DD06FF02F023078A0F13003092B1F
:1062200009D807EB870302EB4303C718761CF3E793
:1062300058F8047B761C30786C280FD006DC4C288C
:1062400017D068280DD06A2814D104E0742810D023
:106250007A280FD10DE044F400140AE044F48014CD
:1062600001E044F440147278824202D104F58014B3
:10627000761C761C307866280BD013DC582877D033
:1062800009DC002875D04528F6D04628F4D04728E8
:106290001AD193E118E0632835D0642879D06528B5
